:1000000052EF0AF00000000000EF00F000000000D6
:0A0010000000000000000000F3D71C
:0E001C0001011AB102D08A9201D08A8212002C
:0E002A0001011AB102D08D9201D08D82120018
:0E00380001011AB102D08B9801D08B88120002
:0E00460001011AB102D0899201D08982120004
:0E00540001011AB102D08B9401D08B841200EE
:0E00620001011AB102D08B9E01D08B8E1200CC
:0E00700001011AB102D08B9C01D08B8C1200C2
:0E007E0001011AB102D08B9601D08B861200C0
:0E008C0001011AB102D08B9A01D08B8A1200AA
:0E009A0001011AB102D0899801D089881200A4
:0E00A80001011AB102D08A9001D08A801200A4
:0E00B60001011AB102D08B9A01D08B8A120080
:1000C4000F0121B302D00000FBD71AC11CFF12009C
:0E00D40001011AB102D08B9201D08B82120072
:1000E2001AC16AFF016A0150000A05E1000E68B0F8
:0C00F200010E016EF8D76ACF01F0120079
:0E00FE0001011AB102D08B9E01D08B8E120030
:0E010C0001011AB102D08B9C01D08B8C120025
:0E011A00ACB202D00000FCD71AC1ADFF12003B
:0E01280001011AB102D08B9601D08B86120015
:0E01360001011AB102D08D9001D08D8012000F
:0E01440001011AB102D08B9601D08B861200F9
:0E01520001011AB102D08F9401D08F841200E7
:0E01600001011AB102D08B9801D08B881200D9
:10016E001AC16AFF016A0150000A05E1000E68B06B
:0C017E00010E016EF8D76ACF00F01200ED
:0E018A0001011AB102D08B9A01D08B8A1200AB
:0E01980001011AB102D08F9001D08F801200A9
:1001A6001AC1C9FF016A0150000A05E1000EC7B075
:0C01B600010E016EF8D7C9CF00F0120056
:0E01C20001011AB102D08F9201D08F8212007B
:0E01D00001011AB102D08A9401D08A84120073
:0E01DE0001011AB102D08B9601D08B8612005F
:0E01EC0001011AB102D08D9601D08D8612004D
:0E01FA0001011AB102D08B9801D08B8812003F
:0E02080001011AB102D08B9801D08B88120030
:0E02160001011AB102D08D9401D08D84120026
:0E02240001011AB102D08B9601D08B86120018
:0E02320001011AB102D08B9601D08B8612000A
:0E02400001011AB102D08B9801D08B881200F8
:0E024E0001011AB102D0899401D089841200F6
:0E025C0001011AB102D08B9801D08B881200DC
:0E026A0001011AB102D08B9001D08B801200DE
:100278001AC1C9FF016A0150000A05E1000EC7B0A2
:0C028800010E016EF8D7C9CF01F0120082
:0E02940001011AB102D0899001D089801200B8
:1002A200F250026EF29E0500FF6A0150FE6E00508F
:0802B200FD6E02BEF28E120087
:1002BA001A0E0001E66F010EE76F1A0EE86F010EC3
:1002CA00E96FFF0EDE6FFF0EDF6F000EE06F000EAC
:1002DA00E16FFF0EEA6FFF0EEB6F000EEC6F000E80
:1002EA00ED6FFF0EE26FFF0EE36F000EE46F000E7C
:1002FA00E56FAC8A900EAB6E948E949C9EAA03D046
:08030A00AECF00F0FBD712009A
:1003120010C114F111C115F112C100F013C101F0A5
:10032200010E0101125F000E135B0050011013E079
:10033200A6C0E1FFA7C0E2FF14C1E9FF15C1EAFFB1
:10034200EECFE6FFA4C000F0A5C001F0A9DF0101D5
:08035200144B152BE1D712003A
:10035A00A60E0001F66F010EF76F1A0EF86F010E66
:10036A00F96F780EF26F020EF36F1A0EF46F010E28
:10037A00F56F949A01011051040A02E1948601D0A2
:10038A0094969488C66AC79CC79E1051C612125189
:10039A00C6121151C712125305E01351000AD8B4FC
:0E03AA00C78C03D01353D8A4C78CC68A120088
:1003B800C40E0001E66F000EE76F1A0EE86F010E1B
:1003C800E96FFF0EDE6FFF0EDF6F000EE06F000EAD
:1003D800E16FFF0EEA6FFF0EEB6F000EEC6F000E81
:1003E800ED6FFF0EE26FFF0EE36F000EE46F000E7D
:1003F800E56F0F01218B900E226F98849892A4AA22
:0A04080003D01DCF00F0FBD7120057
:1004120010C116F111C117F112C118F113C119F16E
:1004220014C100F015C101F0010E0101145F000EAC
:10043200155B005001101BE0F0C0E1FFF1C0E2FFCC
:1004420016C1E9FF17C1EAFFEECFE6FFEEC000F0EA
:10045200EFC001F025DF18C1E1FF19C1E2FF00C0C2
:10046200E6FF0101184B192B164B172BD9D7120097
:10047200086A096A100E0C6E0134083609360450F7
:10048200085E0550D8A0053C095ED8B007D00450DC
:1004920008260550D8B0053C0926D890003601360A
:0604A2000C2EEAD7120047
:1004A80009C1F6FF0AC1F7FF0BC1F8FF0900F5CF34
:1004B80010F1040E01010925F66E000E0A21F76EEF
:1004C800000E0B21F86E0900F5CF11F1080E092571
:1004D800F66E000E0A21F76E000E0B21F86E090069
:1004E800F5CF12F10C0E0925F66E000E0A21F76EF3
:1004F800000E0B21F86E0900F5CF13F12ADF000E6C
:04050800006E12006F
:10050C0021D0CF0EAF6EAC94D2DE6BD0670EAF6E37
:10051C00AC94CDDE66D0CF0EAF6EAC84C8DE61D0AD
:10052C00670EAF6EAC84C3DE5CD0440EAF6EAC8491
:10053C00BEDE57D0220EAF6EAC84B9DE52D0060EA2
:10054C00006E59D0000E006E01010C1908E100502C
:10055C000B1905E1120E0A1902E10951C00AD1E08A
:10056C00000E006E0C1908E100500B1905E1250E68
:10057C000A1902E10951800AC9E0000E006E0C193B
:10058C0008E100500B1905E14B0E0A1902E1095163
:10059C00000AC1E0000E006E0C1908E100500B19A6
:1005AC0005E1960E0A1902E10951000AB9E0000EA4
:1005BC00006E0C1908E100500B1905E1E10E0A1947
:1005CC0002E10951000AB1E00C51000A08E10B519B
:1005DC00010A05E10A51C20A02E10951000AAAE026
:1005EC00AED71A0E0001986F010E996F1A0E9A6F02
:0805FC00010E9B6F006A120062
:1006040009C1F6FF0AC1F7FF0BC1F8FF0900F5CFD6
:1006140010F1040E01010925F66E000E0A21F76E91
:10062400000E0B21F86E0900F5CF11F1080E092513
:10063400F66E000E0A21F76E000E0B21F86E09000B
:10064400F5CF12F10C0E0925F66E000E0A21F76E95
:10065400000E0B21F86E0900F5CF13F17CDE000EBD
:04066400006E120012
:1006680009C1F6FF0AC1F7FF0BC1F8FF0900F5CF72
:1006780010F1040E01010925F66E000E0A21F76E2D
:10068800000E0B21F86E0900F5CF11F1080E0925AF
:10069800F66E000E0A21F76E000E0B21F86E0900A7
:1006A800F5CF12F10C0E0925F66E000E0A21F76E31
:1006B800000E0B21F86E0900F5CF13F14ADE000E8B
:0406C800006E1200AE
:1006CC0021D0CF0EAF6EAC94F2DD6BD0670EAF6E57
:1006DC00AC94EDDD66D0CF0EAF6EAC84E8DD61D0AE
:1006EC00670EAF6EAC84E3DD5CD0440EAF6EAC84B1
:1006FC00DEDD57D0220EAF6EAC84D9DD52D0060EA3
:10070C00006E59D0000E006E01010C1908E100506A
:10071C000B1905E1120E0A1902E10951C00AD1E0C8
:10072C00000E006E0C1908E100500B1905E1250EA6
:10073C000A1902E10951800AC9E0000E006E0C1979
:10074C0008E100500B1905E14B0E0A1902E10951A1
:10075C00000AC1E0000E006E0C1908E100500B19E4
:10076C0005E1960E0A1902E10951000AB9E0000EE2
:10077C00006E0C1908E100500B1905E1E10E0A1985
:10078C0002E10951000AB1E00C51000A08E10B51D9
:10079C00010A05E10A51C20A02E10951000AAAE064
:1007AC00AED71A0E0001986F010E996F1A0E9A6F40
:0807BC00010E9B6F006A1200A0
:1007C40038D00F0120870D0E1F6F040E1E6F218578
:1007D400F1DD7ED00F012087060E1F6F820E1E6F83
:1007E4002185E8DD75D00F012087030E1F6F400EB1
:1007F4001E6F2185DFDD6CD00F012087010E1F6F76
:10080400A00E1E6F2185D6DD63D00F012087010E57
:100814001F6F150E1E6F2185CDDD5AD00F01208765
:100824001F6B8A0E1E6F2185C5DD52D0060E006E29
:1008340059D0000E006E01010C1908E100500B198B
:1008440005E1120E0A1902E10951C00ABAE0000ECC
:10085400006E0C1908E100500B1905E1250E0A1968
:1008640002E10951800AB6E0000E006E0C1908E19D
:1008740000500B1905E14B0E0A1902E10951000A57
:10088400B2E0000E006E0C1908E100500B1905E1EE
:10089400960E0A1902E10951000AAEE0000E006E3C
:1008A4000C1908E100500B1905E1E10E0A1902E1E7
:1008B4000951000AAAE00C51000A08E10B51010A8F
:1008C40005E10A51C20A02E10951000AA7E0AED7C4
:1008D400C40E0001986F000E996F1A0E9A6F010EE4
:0608E4009B6F006A120088
:1008EA0021D0CF0EAF6EAC94E3DC6BD0670EAF6E47
:1008FA00AC94DEDC66D0CF0EAF6EAC84D9DC61D0AE
:10090A00670EAF6EAC84D4DC5CD0440EAF6EAC84A0
:10091A00CFDC57D0220EAF6EAC84CADC52D0060EA2
:10092A00006E59D0000E006E01010C1908E100504A
:10093A000B1905E1120E0A1902E10951C00AD1E0A8
:10094A00000E006E0C1908E100500B1905E1250E86
:10095A000A1902E10951800AC9E0000E006E0C1959
:10096A0008E100500B1905E14B0E0A1902E1095181
:10097A00000AC1E0000E006E0C1908E100500B19C4
:10098A0005E1960E0A1902E10951000AB9E0000EC2
:10099A00006E0C1908E100500B1905E1E10E0A1965
:1009AA0002E10951000AB1E00C51000A08E10B51B9
:1009BA00010A05E10A51C20A02E10951000AAAE044
:1009CA00AED71A0E0001986F010E996F1A0E9A6F20
:0809DA00010E9B6F006A120080
:1009E200060E01010A6F060E016E09C100F00150E8
:1009F20004E000360090FF0FFBD700C009F100C0F1
:100A02000BF1A2C0E1FFA3C0E2FFE66AA0C000F0C2
:100A1200A1C001F045DC0A0E0101106F010E116F39
:100A2200010E126F000E136F73DC0B0E106F010EAE
:100A3200116F0C0E126F010E136F020E146F000E67
:100A4200156FE6DCA2C0E1FFA3C0E2FF010EE66E75
:100A5200A0C000F0A1C001F023DC0F0E01010C15B3
:100A62000E6F0F6B000E0F17000E0F6F0EC101F00D
:100A7200006A00C00EF101C00FF10D510012000E0C
:0C0A8200011200C00EF101C00FF11200C3
:100A8E0059D001010AB102D0929201D092820F0187
:100A9E00259376D001010AB102D0929801D09288A6
:100AAE006FD001010AB102D0969201D0968268D021
:100ABE0001010AB102D0949601D0948661D0010151
:100ACE000AB102D0949801D094885AD001010AB18B
:100ADE0002D0949A01D0948A53D001010AB102D067
:100AEE00949401D094844CD001010AB102D0939217
:100AFE0001D0938245D001010AB102D0949E01D05B
:100B0E00948E3ED001010AB102D0949C01D0948CF7
:100B1E0037D001010AB102D0949601D0948630D01C
:100B2E0001010AB102D0949801D0948829D0010E07
:100B3E00006E28D001010951000AA3E00951010AF3
:100B4E00A9E00951020AADE00951030AB1E00951C9
:100B5E00040AB5E00951050AB9E00951060ABDE0DB
:100B6E000951070AC1E00951080AC5E00951090AED
:100B7E00C9E009510A0ACDE009510B0AD1E0D7D7D5
:060B8E00000E006E1200D3
:100B940001010D6B050E0D5D0AE20D510B25E16E91
:100BA400000E0C21E26E200EE66E0D2BF3D70D51D4
:100BB4000B25E16E000E0C21E26EE66A0D070D5165
:100BC4000B250E6F000E0C210F6F0A0E046E000E23
:100BD400056E09C100F00AC101F049DC08C000F04B
:100BE40009C001F0300E00260EC1E1FF0FC1E2FF83
:100BF40000C0E6FF0A0E046E000E056E09C100F087
:100C04000AC101F034DC00C009F101C00AF1000E90
:100C1400011802E1000E001801E102D00D07CFD740
:020C24001200BC
:100C260059D001010AB102D0929001D092800F01F1
:100C3600259176D001010AB102D0949001D094801A
:100C46006FD001010AB102D0969001D0968068D08B
:100C560001010AB102D0949601D0948661D00101B7
:100C66000AB102D0949801D094885AD001010AB1F1
:100C760002D0949A01D0948A53D001010AB102D0CD
:100C8600949201D094824CD001010AB102D0939083
:100C960001D0938045D001010AB102D0949E01D0C3
:100CA600948E3ED001010AB102D0949C01D0948C5E
:100CB60037D001010AB102D0949601D0948630D083
:100CC60001010AB102D0949801D0948829D0010E6E
:100CD600006E28D001010951000AA3E00951010A5A
:100CE600A9E00951020AADE00951030AB1E0095130
:100CF600040AB5E00951050AB9E00951060ABDE042
:100D06000951070AC1E00951080AC5E00951090A53
:100D1600C9E009510A0ACDE009510B0AD1E0D7D73B
:060D2600000E006E120039
:100D2C005DD001010AB102D0929401D092840F01DE
:100D3C0025957AD001010AB102D0969601D09686FB
:100D4C0073D001010AB102D0969401D096846CD074
:100D5C0001010AB102D0949601D0948665D00101AC
:100D6C000AB102D0949801D094885ED001010AB1E6
:100D7C0002D0949A01D0948A57D001010AB102D0C2
:100D8C00989001D0988050D001010AB102D0939470
:100D9C0001D0938449D001010AB102D0989401D0BA
:100DAC0098840F01239540D001010AB102D098928A
:100DBC0001D098820F01239337D001010AB102D0E0
:100DCC00949601D0948630D001010AB102D0949847
:100DDC0001D0948829D0010E006E28D00101095150
:100DEC00000A9FE00951010AA5E00951020AA9E095
:100DFC000951030AADE00951040AB1E00951050A91
:100E0C00B5E00951060AB9E00951070ABDE00951DC
:100E1C00080AC1E00951090AC7E009510A0ACDE0E4
:0E0E2C0009510B0AD1E0D7D7000E006E12005C
:100E3A00080E01010925F66E000E0A21F76E000E52
:100E4A000B21F86E0900F5CFA0F00900F5CFA1F04B
:0E0E5A000900F5CFA2F00900F5CFA3F01200B9
:100E680009C1F6FF0AC1F7FF0BC1F8FF0900F5CF6A
:100E7800A4F00900F5CFA5F00900F5CFA6F0090008
:100E8800F5CFA7F0040E01010925F66E000E0A2120
:100E9800F76E000E0B21F86E0900F5CFEEF0090091
:100EA800F5CFEFF00900F5CFF0F00900F5CFF1F03C
:020EB800120026
:100EBA009AC0E1FF9BC0E2FF09C1E9FF0AC1EAFF4C
:100ECA00EECFE6FF98C000F099C001F051EC01F0B6
:040EDA00006A120098
:100EDE0015D0FBC009F1FCC00AF19EDE1AD0FBC092
:100EEE0009F1FCC00AF1CCDD14D0FBC009F1FCC045
:100EFE000AF115DF0ED0010E006E0BD00001FA5173
:100F0E00000AE7E0FA51010AEAE0FA51020AEDE0BE
:040F1E00F2D71200F4
:100F22001ED0FBC009F1FCC00AF1FDC00BF102ECBE
:100F320003F020D0FBC009F1FCC00AF1FDC00BF1A7
:100F420034EC03F017D0FBC009F1FCC00AF1FDC07C
:100F52000BF154EC02F00ED0010E006E0BD000012A
:100F6200FA51000ADEE0FA51010AE4E0FA51020AFB
:060F7200EAE0F2D71200D4
:100F7800080E0101096F31DD01C1E1FF02C1E2FF85
:100F880000C0E6FF01C0E6FF090E096F26DD03C1B8
:100F9800E1FF04C1E2FF00C0E6FF01C0E6FF0A0E60
:100FA800096F1BDD05C1E1FF06C1E2FF00C0E6FFD6
:100FB80001C0E6FF0B0E096F10DD07C1E1FF08C194
:0C0FC800E2FF00C0E6FF01C0E6FF1200DF
:100FD4000001FC6BFD6BFAC003F0FBC004F0FAC027
:100FE40005F0FBC006F003C0E9FF04C0EAFFEE50C1
:100FF400200A04E1FC51FD1101E110D0010EFC6F47
:10100400000EFD6F03C0E9FF04C0EAFF05C0E1FF65
:1010140006C0E2FFEECFE6FF054A062A03C001F050
:1010240004C002F0034A042A01C0E9FF02C0EAFF37
:10103400EE50000AD8E1FAC000F0FBC001F0120043
:101044000101016B026BFAC003F1FBC004F1800ED5
:101054000001FB19006E800E005C02E1000EFA5DD7
:101064000EE2010E0101016F000E026F0001FA5140
:1010740000080101036FFBC004F1000E045703C113
:1010840009F104C10AF1FCC00BF1FDC00CF180DDD3
:10109400060E0001FE6F000EFF6F000E006EFF5182
:1010A400005C02E1FE51000819E2FE51FC25E16EEC
:1010B400FF51FD21E26E010EFE5D006E000EFF5930
:1010C400016E0050FC25E96E0150FD21EA6EEECF61
:1010D400E6FF010EFE5F000EFF5BDFD7FCC0E1FF01
:1010E400FDC0E2FF200EE66E0101015102111BE07A
:1010F4000001FE6BFF6BFE51FC25E96EFF51FD21E3
:10110400EA6EEE50200A03E1FE4BFF2BF4D7010EEA
:10111400FE5F000EFF5BFE51FC25E16EFF51FD21D9
:08112400E26E2D0EE66E1200D2
:10112C00FAC0FDF0FBC0FEF00D0E0001FF6F0A0EC1
:10113C000101006F35D0FDC009F1FEC00AF1B7DE28
:10114C003AD0FDC0E9FFFEC0EAFFEE5209E0FDC057
:10115C0009F1FEC00AF1ABDE0001FD4BFE2BF1D70D
:10116C002AD0FDC0E9FFFEC0EAFFEE5209E0FDC047
:10117C0009F1FEC00AF19BDE0001FD4BFE2BF1D7FD
:10118C00FF0E0101096F000E0A6F91DE000E0101C6
:10119C00096F010E0A6F8BDE0ED0060E006E0CD09E
:1011AC000001FC51000AC7E0FC51010ACAE0FC51E5
:0A11BC00020AD7E0F2D7006A120021
:1011C6002FD0FBC009F1FCC00AF1FDC00BF1FEC037
:1011D6000CF166EC03F032D0FBC009F1FCC00AF159
:1011E600FDC00BF1FEC00CF175EC04F027D0FBC07E
:1011F60009F1FCC00AF1FDC00BF1FEC00CF1E2ECF6
:1012060003F01CD0FBC009F1FCC00AF1FDC00BF1D4
:10121600FEC00CF186EC02F011D0010E006E0ED06D
:101226000001FA51000ACDE0FA51010AD5E0FA515F
:0E123600020ADDE0FA51100AE5E0EFD71200DF
:10124400FDC009F1FEC00AF1FFC00BF10BDEFAC0CC
:1012540009F1FBC00AF1FCC00BF1EDDDA2C0E1FF16
:10126400A3C0E2FF010EE66EA0C000F0A1C001F031
:0612740051EC01F0120034
:10127A000001FA6B020EFB6FFC6B2CDE0001FA6BAD
:10128A00950EFB6F150EFC6F000EFD6F45DE100EFE
:10129A000001FA6F800EFB6F250EFC6F000EFD6FCA
:1012AA00FE6F8CDF090E0B6E1E0E0C6EE40E0D6EB9
:1012BA000D2EFED70C2EFCD70B2EFAD700001200EB
:1012CA000900F5CFE6FF0006FBE10106F9E112008D
:1012DA00350E0001FA6F150EFB6F000EFC6FA50E9E
:1012EA00FD6F150EFE6F000EFF6FA7DF090E0B6E66
:1012FA001E0E0C6EE40E0D6E0D2EFED70C2EFCD7B4
:10130A000B2EFAD70000150E0001FA6F000EFB6FC4
:10131A00020EFC6F06DF280E0001FA6F000EFB6F4B
:10132A00020EFC6FFEDE3A0E0001FA6F000EFB6F32
:08133A00020EFC6FF6DE12004A
:101342009E0E0101016F000E026F9C0E036F000ED4
:10135200046FAA0E056F000E066FA80E076F000E2F
:10136200086F09DE090E0B6E1E0E0C6EE40E0D6E7A
:101372000D2EFED70C2EFCD70B2EFAD700009EC0E6
:10138200FAF09FC0FBF0AC0E0001FC6F000EFD6F87
:1013920058DEAC0E0001FA6F000EFB6F1ADE8A0EE9
:1013A200FA6F000EFB6F010EFC6FBFDEAC0E000188
:1013B200FA6F000EFB6F020EFC6FB7DE9CC0FAF0F4
:1013C2009DC0FBF0AC0E0001FC6F000EFD6F39DE1C
:1013D200AC0E0001FA6F000EFB6FFBDD5B0EFA6FC5
:1013E200000EFB6F010EFC6FA0DEAC0E0001FA6F67
:1013F200000EFB6F020EFC6F98DEAAC0FAF0ABC0C3
:10140200FBF0AC0E0001FC6F000EFD6F1ADEAC0E9D
:101412000001FA6F000EFB6FDCDD4D0EFA6F000E5D
:10142200FB6F010EFC6F81DEAC0E0001FA6F000E45
:10143200FB6F020EFC6F79DEA8C0FAF0A9C0FBF0C8
:10144200AC0E0001FC6F000EFD6FFBDDAC0E000167
:10145200FA6F000EFB6FBDDD7C0EFA6F000EFB6FA4
:10146200010EFC6F62DEAC0E0001FA6F000EFB6F24
:10147200020EFC6F5ADE690E0001FA6F000EFB6F5E
:10148200020EFC6F52DE520E0B6E2B0E0C6E000E15
:101492000D6E0D2EFED70C2EFCD70B2EFAD70000A8
:0214A200120036
:0E14A400D7EC0AF0E8DE17DF4ADFFED7FFD7ED
:1015AE0010EE15F0830E006E010E016EB20EF66E89
:0E15BE00140EF76E000EF86E65EC09F01200C8
:1014B2002D2D2D2D2D2D2D2D2D2D2D2D2D2D2D2D5A
:0314C2002D2D00CD
:1014C5002020202041444320436C69636B20202069
:0214D5002000F5
:1014D7002D2D2D2D2D2D2D2D2D2D2D2D2D2D2D2D35
:0314E7002D2D00A8
:0E14EA00204368616E6E656C2032203A20004F
:0E14F800204368616E6E656C2031203A200042
:101506002D2D2D2D2D2D2D2D2D2D2D2D2D2D2D2D05
:031516002D2D0078
:0E151900204368616E6E656C2033203A20001E
:0E152700204368616E6E656C2030203A200013
:1015350094021A016A021A0136011A0144011A01BC
:1015450060011A01B6001A01D4001A01A8001A0197
:10155500FE001A010C011A017E001A0138001A0159
:10156500FFFFFFFFFFFFFFFFFFFFFFFFFFFFFFFF86
:10157500FFFFFFFFFFFFFFFFFFFFFFFFFFFFFFFF76
:10158500FFFFFFFFFFFFFFFFFFFFFFFFFFFFFFFF66
:101595000200000000000000000000000100000043
:0815A50078021A01A6011A01E7
:020000040030CA
:0E00000015137F7CF98B91FFFFC0FFE0FF40DE
:00000001FF
